{
   "_format": "hh-sol-artifact-1",
   "contractName": "CTFNFT",
   "sourceName": "contracts/CTFNFT.sol",
   "abi": [
      {
         "inputs": [
            {
               "internalType": "address",
               "name": "_token",
               "type": "address"
            },
            {
               "internalType": "address",
               "name": "_nft",
               "type": "address"
            }
         ],
         "stateMutability": "nonpayable",
         "type": "constructor"
      },
      {
         "inputs": [
            {
               "internalType": "address",
               "name": "",
               "type": "address"
            }
         ],
         "name": "credit",
         "outputs": [
            {
               "internalType": "uint256",
               "name": "",
               "type": "uint256"
            }
         ],
         "stateMutability": "view",
         "type": "function"
      },
      {
         "inputs": [],
         "name": "depositNFT",
         "outputs": [],
         "stateMutability": "nonpayable",
         "type": "function"
      },
      {
         "inputs": [],
         "name": "getLoan",
         "outputs": [],
         "stateMutability": "nonpayable",
         "type": "function"
      },
      {
         "inputs": [],
         "name": "nft",
         "outputs": [
            {
               "internalType": "contract NFT",
               "name": "",
               "type": "address"
            }
         ],
         "stateMutability": "view",
         "type": "function"
      },
      {
         "inputs": [],
         "name": "token",
         "outputs": [
            {
               "internalType": "contract ERCtoken",
               "name": "",
               "type": "address"
            }
         ],
         "stateMutability": "view",
         "type": "function"
      },
      {
         "inputs": [],
         "name": "withdrawNFT",
         "outputs": [],
         "stateMutability": "nonpayable",
         "type": "function"
      }
   ],
   "bytecode": "0x608060405234801561001057600080fd5b50604051610da2380380610da2833981810160405281019061003291906101a0565b80600260006101000a81548173ffffffffffffffffffffffffffffffffffffffff021916908373ffffffffffffffffffffffffffffffffffffffff16021790555081600160006101000a81548173ffffffffffffffffffffffffffffffffffffffff021916908373ffffffffffffffffffffffffffffffffffffffff160217905550600160009054906101000a900473ffffffffffffffffffffffffffffffffffffffff1673ffffffffffffffffffffffffffffffffffffffff166321df0da76040518163ffffffff1660e01b8152600401600060405180830381600087803b15801561011e57600080fd5b505af1158015610132573d6000803e3d6000fd5b5050505050506101e0565b600080fd5b600073ffffffffffffffffffffffffffffffffffffffff82169050919050565b600061016d82610142565b9050919050565b61017d81610162565b811461018857600080fd5b50565b60008151905061019a81610174565b92915050565b600080604083850312156101b7576101b661013d565b5b60006101c58582860161018b565b92505060206101d68582860161018b565b9150509250929050565b610bb3806101ef6000396000f3fe608060405234801561001057600080fd5b50600436106100625760003560e01c806347ccca02146100675780634859b3f4146100855780635e38c9541461008f57806367e3c4d414610099578063d5d44d80146100a3578063fc0c546a146100d3575b600080fd5b61006f6100f1565b60405161007c91906106de565b60405180910390f35b61008d610117565b005b610097610293565b005b6100a16103f6565b005b6100bd60048036038101906100b8919061073c565b610621565b6040516100ca9190610782565b60405180910390f35b6100db610639565b6040516100e891906107be565b60405180910390f35b600260009054906101000a900473ffffffffffffffffffffffffffffffffffffffff1681565b60016000803373ffffffffffffffffffffffffffffffffffffffff1673ffffffffffffffffffffffffffffffffffffffff168152602001908152602001600020541015610199576040517f08c379a00000000000000000000000000000000000000000000000000000000081526004016101909061085c565b60405180910390fd5b600160009054906101000a900473ffffffffffffffffffffffffffffffffffffffff1673ffffffffffffffffffffffffffffffffffffffff1663a9059cbb3360016040518363ffffffff1660e01b81526004016101f79291906108c6565b6020604051808303816000875af1158015610216573d6000803e3d6000fd5b505050506040513d601f19601f8201168201806040525081019061023a9190610927565b5060016000803373ffffffffffffffffffffffffffffffffffffffff1673ffffffffffffffffffffffffffffffffffffffff168152602001908152602001600020600082825461028a9190610983565b92505081905550565b60016000803373ffffffffffffffffffffffffffffffffffffffff1673ffffffffffffffffffffffffffffffffffffffff168152602001908152602001600020541015610315576040517f08c379a000000000000000000000000000000000000000000000000000000000815260040161030c90610a29565b60405180910390fd5b600260009054906101000a900473ffffffffffffffffffffffffffffffffffffffff1673ffffffffffffffffffffffffffffffffffffffff166342842e0e303360016040518463ffffffff1660e01b815260040161037593929190610a49565b600060405180830381600087803b15801561038f57600080fd5b505af11580156103a3573d6000803e3d6000fd5b5050505060016000803373ffffffffffffffffffffffffffffffffffffffff1673ffffffffffffffffffffffffffffffffffffffff16815260200190815260200160002060008282540392505081905550565b3373ffffffffffffffffffffffffffffffffffffffff16600260009054906101000a900473ffffffffffffffffffffffffffffffffffffffff1673ffffffffffffffffffffffffffffffffffffffff16636352211e60016040518263ffffffff1660e01b81526004016104699190610a80565b602060405180830381865afa158015610486573d6000803e3d6000fd5b505050506040513d601f19601f820116820180604052508101906104aa9190610ab0565b73ffffffffffffffffffffffffffffffffffffffff1614610500576040517f08c379a00000000000000000000000000000000000000000000000000000000081526004016104f790610b29565b60405180910390fd5b600260009054906101000a900473ffffffffffffffffffffffffffffffffffffffff1673ffffffffffffffffffffffffffffffffffffffff166323b872dd333060016040518463ffffffff1660e01b815260040161056093929190610a49565b600060405180830381600087803b15801561057a57600080fd5b505af115801561058e573d6000803e3d6000fd5b5050505060016000803373ffffffffffffffffffffffffffffffffffffffff1673ffffffffffffffffffffffffffffffffffffffff168152602001908152602001600020546105dd9190610b49565b6000803373ffffffffffffffffffffffffffffffffffffffff1673ffffffffffffffffffffffffffffffffffffffff16815260200190815260200160002081905550565b60006020528060005260406000206000915090505481565b600160009054906101000a900473ffffffffffffffffffffffffffffffffffffffff1681565b600073ffffffffffffffffffffffffffffffffffffffff82169050919050565b6000819050919050565b60006106a461069f61069a8461065f565b61067f565b61065f565b9050919050565b60006106b682610689565b9050919050565b60006106c8826106ab565b9050919050565b6106d8816106bd565b82525050565b60006020820190506106f360008301846106cf565b92915050565b600080fd5b60006107098261065f565b9050919050565b610719816106fe565b811461072457600080fd5b50565b60008135905061073681610710565b92915050565b600060208284031215610752576107516106f9565b5b600061076084828501610727565b91505092915050565b6000819050919050565b61077c81610769565b82525050565b60006020820190506107976000830184610773565b92915050565b60006107a8826106ab565b9050919050565b6107b88161079d565b82525050565b60006020820190506107d360008301846107af565b92915050565b600082825260208201905092915050565b7f536f7272792c20796f7520646f6e74206861766520656e6f756768206372656460008201527f6974000000000000000000000000000000000000000000000000000000000000602082015250565b60006108466022836107d9565b9150610851826107ea565b604082019050919050565b6000602082019050818103600083015261087581610839565b9050919050565b610885816106fe565b82525050565b6000819050919050565b60006108b06108ab6108a68461088b565b61067f565b610769565b9050919050565b6108c081610895565b82525050565b60006040820190506108db600083018561087c565b6108e860208301846108b7565b9392505050565b60008115159050919050565b610904816108ef565b811461090f57600080fd5b50565b600081519050610921816108fb565b92915050565b60006020828403121561093d5761093c6106f9565b5b600061094b84828501610912565b91505092915050565b7f4e487b7100000000000000000000000000000000000000000000000000000000600052601160045260246000fd5b600061098e82610769565b915061099983610769565b92508282039050818111156109b1576109b0610954565b5b92915050565b7f536f7272792c2065697468657220796f75207573656420796f7572206372656460008201527f6974206f7220796f75206e657665722068616420616e79210000000000000000602082015250565b6000610a136038836107d9565b9150610a1e826109b7565b604082019050919050565b60006020820190508181036000830152610a4281610a06565b9050919050565b6000606082019050610a5e600083018661087c565b610a6b602083018561087c565b610a7860408301846108b7565b949350505050565b6000602082019050610a9560008301846108b7565b92915050565b600081519050610aaa81610710565b92915050565b600060208284031215610ac657610ac56106f9565b5b6000610ad484828501610a9b565b91505092915050565b7f596f7520617265206e6f7420746865206f776e65720000000000000000000000600082015250565b6000610b136015836107d9565b9150610b1e82610add565b602082019050919050565b60006020820190508181036000830152610b4281610b06565b9050919050565b6000610b5482610769565b9150610b5f83610769565b9250828201905080821115610b7757610b76610954565b5b9291505056fea2646970667358221220cf23827dc8ddf9732f17af92d1735835cb48088ecf1023929fbef6d950c17c2064736f6c63430008140033",
   "linkReferences": {},
   "deployedLinkReferences": {}
}