{
   "_format": "hh-sol-artifact-1",
   "contractName": "DAO",
   "sourceName": "contracts/DAO.sol",
   "abi": [
      {
         "inputs": [],
         "stateMutability": "payable",
         "type": "constructor"
      },
      {
         "inputs": [
            {
               "internalType": "address",
               "name": "",
               "type": "address"
            }
         ],
         "name": "balances",
         "outputs": [
            {
               "internalType": "uint256",
               "name": "",
               "type": "uint256"
            }
         ],
         "stateMutability": "view",
         "type": "function"
      },
      {
         "inputs": [
            {
               "internalType": "address",
               "name": "_to",
               "type": "address"
            }
         ],
         "name": "deposit",
         "outputs": [],
         "stateMutability": "payable",
         "type": "function"
      },
      {
         "inputs": [
            {
               "internalType": "uint256",
               "name": "_amount",
               "type": "uint256"
            }
         ],
         "name": "withdraw",
         "outputs": [],
         "stateMutability": "nonpayable",
         "type": "function"
      },
      {
         "stateMutability": "payable",
         "type": "receive"
      }
   ],
   "bytecode": "0x6080604052610475806100136000396000f3fe6080604052600436106100385760003560e01c806327e235e3146100445780632e1a7d4d14610081578063f340fa01146100aa5761003f565b3661003f57005b600080fd5b34801561005057600080fd5b5061006b600480360381019061006691906102dc565b6100c6565b6040516100789190610322565b60405180910390f35b34801561008d57600080fd5b506100a860048036038101906100a39190610369565b6100de565b005b6100c460048036038101906100bf91906102dc565b6101e0565b005b60006020528060005260406000206000915090505481565b806000803373ffffffffffffffffffffffffffffffffffffffff1673ffffffffffffffffffffffffffffffffffffffff16815260200190815260200160002054106101dd5760003373ffffffffffffffffffffffffffffffffffffffff1682604051610149906103c7565b60006040518083038185875af1925050503d8060008114610186576040519150601f19603f3d011682016040523d82523d6000602084013e61018b565b606091505b50509050816000803373ffffffffffffffffffffffffffffffffffffffff1673ffffffffffffffffffffffffffffffffffffffff16815260200190815260200160002060008282540392505081905550505b50565b346000808373ffffffffffffffffffffffffffffffffffffffff1673ffffffffffffffffffffffffffffffffffffffff168152602001908152602001600020600082825461022e919061040b565b9250508190556000808373ffffffffffffffffffffffffffffffffffffffff1673ffffffffffffffffffffffffffffffffffffffff1681526020019081526020016000208190555050565b600080fd5b600073ffffffffffffffffffffffffffffffffffffffff82169050919050565b60006102a98261027e565b9050919050565b6102b98161029e565b81146102c457600080fd5b50565b6000813590506102d6816102b0565b92915050565b6000602082840312156102f2576102f1610279565b5b6000610300848285016102c7565b91505092915050565b6000819050919050565b61031c81610309565b82525050565b60006020820190506103376000830184610313565b92915050565b61034681610309565b811461035157600080fd5b50565b6000813590506103638161033d565b92915050565b60006020828403121561037f5761037e610279565b5b600061038d84828501610354565b91505092915050565b600081905092915050565b50565b60006103b1600083610396565b91506103bc826103a1565b600082019050919050565b60006103d2826103a4565b9150819050919050565b7f4e487b7100000000000000000000000000000000000000000000000000000000600052601160045260246000fd5b600061041682610309565b915061042183610309565b9250828201905080821115610439576104386103dc565b5b9291505056fea264697066735822122010d8a69dc1cab900851aa77771b89adf42af5576d039d4615cab7c000bc03a9b64736f6c63430008140033",
   "linkReferences": {},
   "deployedLinkReferences": {}
}