{
   "_format": "hh-sol-artifact-1",
   "contractName": "ERCtoken",
   "sourceName": "contracts/ERCtoken.sol",
   "abi": [
      {
         "inputs": [
            {
               "internalType": "address",
               "name": "spender",
               "type": "address"
            },
            {
               "internalType": "uint256",
               "name": "allowance",
               "type": "uint256"
            },
            {
               "internalType": "uint256",
               "name": "needed",
               "type": "uint256"
            }
         ],
         "name": "ERC20InsufficientAllowance",
         "type": "error"
      },
      {
         "inputs": [
            {
               "internalType": "address",
               "name": "sender",
               "type": "address"
            },
            {
               "internalType": "uint256",
               "name": "balance",
               "type": "uint256"
            },
            {
               "internalType": "uint256",
               "name": "needed",
               "type": "uint256"
            }
         ],
         "name": "ERC20InsufficientBalance",
         "type": "error"
      },
      {
         "inputs": [
            {
               "internalType": "address",
               "name": "approver",
               "type": "address"
            }
         ],
         "name": "ERC20InvalidApprover",
         "type": "error"
      },
      {
         "inputs": [
            {
               "internalType": "address",
               "name": "receiver",
               "type": "address"
            }
         ],
         "name": "ERC20InvalidReceiver",
         "type": "error"
      },
      {
         "inputs": [
            {
               "internalType": "address",
               "name": "sender",
               "type": "address"
            }
         ],
         "name": "ERC20InvalidSender",
         "type": "error"
      },
      {
         "inputs": [
            {
               "internalType": "address",
               "name": "spender",
               "type": "address"
            }
         ],
         "name": "ERC20InvalidSpender",
         "type": "error"
      },
      {
         "anonymous": false,
         "inputs": [
            {
               "indexed": true,
               "internalType": "address",
               "name": "owner",
               "type": "address"
            },
            {
               "indexed": true,
               "internalType": "address",
               "name": "spender",
               "type": "address"
            },
            {
               "indexed": false,
               "internalType": "uint256",
               "name": "value",
               "type": "uint256"
            }
         ],
         "name": "Approval",
         "type": "event"
      },
      {
         "anonymous": false,
         "inputs": [
            {
               "indexed": true,
               "internalType": "address",
               "name": "from",
               "type": "address"
            },
            {
               "indexed": true,
               "internalType": "address",
               "name": "to",
               "type": "address"
            },
            {
               "indexed": false,
               "internalType": "uint256",
               "name": "value",
               "type": "uint256"
            }
         ],
         "name": "Transfer",
         "type": "event"
      },
      {
         "inputs": [
            {
               "internalType": "address",
               "name": "owner",
               "type": "address"
            },
            {
               "internalType": "address",
               "name": "spender",
               "type": "address"
            }
         ],
         "name": "allowance",
         "outputs": [
            {
               "internalType": "uint256",
               "name": "",
               "type": "uint256"
            }
         ],
         "stateMutability": "view",
         "type": "function"
      },
      {
         "inputs": [
            {
               "internalType": "address",
               "name": "spender",
               "type": "address"
            },
            {
               "internalType": "uint256",
               "name": "value",
               "type": "uint256"
            }
         ],
         "name": "approve",
         "outputs": [
            {
               "internalType": "bool",
               "name": "",
               "type": "bool"
            }
         ],
         "stateMutability": "nonpayable",
         "type": "function"
      },
      {
         "inputs": [
            {
               "internalType": "address",
               "name": "account",
               "type": "address"
            }
         ],
         "name": "balanceOf",
         "outputs": [
            {
               "internalType": "uint256",
               "name": "",
               "type": "uint256"
            }
         ],
         "stateMutability": "view",
         "type": "function"
      },
      {
         "inputs": [],
         "name": "decimals",
         "outputs": [
            {
               "internalType": "uint8",
               "name": "",
               "type": "uint8"
            }
         ],
         "stateMutability": "view",
         "type": "function"
      },
      {
         "inputs": [],
         "name": "getToken",
         "outputs": [],
         "stateMutability": "nonpayable",
         "type": "function"
      },
      {
         "inputs": [],
         "name": "lock",
         "outputs": [
            {
               "internalType": "bool",
               "name": "",
               "type": "bool"
            }
         ],
         "stateMutability": "view",
         "type": "function"
      },
      {
         "inputs": [],
         "name": "name",
         "outputs": [
            {
               "internalType": "string",
               "name": "",
               "type": "string"
            }
         ],
         "stateMutability": "view",
         "type": "function"
      },
      {
         "inputs": [],
         "name": "symbol",
         "outputs": [
            {
               "internalType": "string",
               "name": "",
               "type": "string"
            }
         ],
         "stateMutability": "view",
         "type": "function"
      },
      {
         "inputs": [],
         "name": "totalSupply",
         "outputs": [
            {
               "internalType": "uint256",
               "name": "",
               "type": "uint256"
            }
         ],
         "stateMutability": "view",
         "type": "function"
      },
      {
         "inputs": [
            {
               "internalType": "address",
               "name": "to",
               "type": "address"
            },
            {
               "internalType": "uint256",
               "name": "value",
               "type": "uint256"
            }
         ],
         "name": "transfer",
         "outputs": [
            {
               "internalType": "bool",
               "name": "",
               "type": "bool"
            }
         ],
         "stateMutability": "nonpayable",
         "type": "function"
      },
      {
         "inputs": [
            {
               "internalType": "address",
               "name": "from",
               "type": "address"
            },
            {
               "internalType": "address",
               "name": "to",
               "type": "address"
            },
            {
               "internalType": "uint256",
               "name": "value",
               "type": "uint256"
            }
         ],
         "name": "transferFrom",
         "outputs": [
            {
               "internalType": "bool",
               "name": "",
               "type": "bool"
            }
         ],
         "stateMutability": "nonpayable",
         "type": "function"
      }
   ],
   "bytecode": "0x60806040523480156200001157600080fd5b506040518060400160405280600781526020017f432d546f6b656e000000000000000000000000000000000000000000000000008152506040518060400160405280600381526020017f43544b000000000000000000000000000000000000000000000000000000000081525081600390816200008f919062000324565b508060049081620000a1919062000324565b5050506200040b565b600081519050919050565b7f4e487b7100000000000000000000000000000000000000000000000000000000600052604160045260246000fd5b7f4e487b7100000000000000000000000000000000000000000000000000000000600052602260045260246000fd5b600060028204905060018216806200012c57607f821691505b602082108103620001425762000141620000e4565b5b50919050565b60008190508160005260206000209050919050565b60006020601f8301049050919050565b600082821b905092915050565b600060088302620001ac7fffffffffffffffffffffffffffffffffffffffffffffffffffffffffffffffff826200016d565b620001b886836200016d565b95508019841693508086168417925050509392505050565b6000819050919050565b6000819050919050565b600062000205620001ff620001f984620001d0565b620001da565b620001d0565b9050919050565b6000819050919050565b6200022183620001e4565b6200023962000230826200020c565b8484546200017a565b825550505050565b600090565b6200025062000241565b6200025d81848462000216565b505050565b5b8181101562000285576200027960008262000246565b60018101905062000263565b5050565b601f821115620002d4576200029e8162000148565b620002a9846200015d565b81016020851015620002b9578190505b620002d1620002c8856200015d565b83018262000262565b50505b505050565b600082821c905092915050565b6000620002f960001984600802620002d9565b1980831691505092915050565b6000620003148383620002e6565b9150826002028217905092915050565b6200032f82620000aa565b67ffffffffffffffff8111156200034b576200034a620000b5565b5b62000357825462000113565b6200036482828562000289565b600060209050601f8311600181146200039c576000841562000387578287015190505b62000393858262000306565b86555062000403565b601f198416620003ac8662000148565b60005b82811015620003d657848901518255600182019150602085019450602081019050620003af565b86831015620003f65784890151620003f2601f891682620002e6565b8355505b6001600288020188555050505b505050505050565b61100c806200041b6000396000f3fe608060405234801561001057600080fd5b50600436106100a95760003560e01c8063313ce56711610071578063313ce5671461015457806370a082311461017257806395d89b41146101a2578063a9059cbb146101c0578063dd62ed3e146101f0578063f83d08ba14610220576100a9565b806306fdde03146100ae578063095ea7b3146100cc57806318160ddd146100fc57806321df0da71461011a57806323b872dd14610124575b600080fd5b6100b661023e565b6040516100c39190610bf4565b60405180910390f35b6100e660048036038101906100e19190610caf565b6102d0565b6040516100f39190610d0a565b60405180910390f35b6101046102f3565b6040516101119190610d34565b60405180910390f35b6101226102fd565b005b61013e60048036038101906101399190610d4f565b610375565b60405161014b9190610d0a565b60405180910390f35b61015c6103a4565b6040516101699190610dbe565b60405180910390f35b61018c60048036038101906101879190610dd9565b6103ad565b6040516101999190610d34565b60405180910390f35b6101aa6103f5565b6040516101b79190610bf4565b60405180910390f35b6101da60048036038101906101d59190610caf565b610487565b6040516101e79190610d0a565b60405180910390f35b61020a60048036038101906102059190610e06565b6104aa565b6040516102179190610d34565b60405180910390f35b610228610531565b6040516102359190610d0a565b60405180910390f35b60606003805461024d90610e75565b80601f016020809104026020016040519081016040528092919081815260200182805461027990610e75565b80156102c65780601f1061029b576101008083540402835291602001916102c6565b820191906000526020600020905b8154815290600101906020018083116102a957829003601f168201915b5050505050905090565b6000806102db610544565b90506102e881858561054c565b600191505092915050565b6000600254905090565b600560009054906101000a900460ff161561034d576040517f08c379a000000000000000000000000000000000000000000000000000000000815260040161034490610ef2565b60405180910390fd5b61035833600161055e565b6001600560006101000a81548160ff021916908315150217905550565b600080610380610544565b905061038d8582856105e0565b610398858585610674565b60019150509392505050565b60006012905090565b60008060008373ffffffffffffffffffffffffffffffffffffffff1673ffffffffffffffffffffffffffffffffffffffff168152602001908152602001600020549050919050565b60606004805461040490610e75565b80601f016020809104026020016040519081016040528092919081815260200182805461043090610e75565b801561047d5780601f106104525761010080835404028352916020019161047d565b820191906000526020600020905b81548152906001019060200180831161046057829003601f168201915b5050505050905090565b600080610492610544565b905061049f818585610674565b600191505092915050565b6000600160008473ffffffffffffffffffffffffffffffffffffffff1673ffffffffffffffffffffffffffffffffffffffff16815260200190815260200160002060008373ffffffffffffffffffffffffffffffffffffffff1673ffffffffffffffffffffffffffffffffffffffff16815260200190815260200160002054905092915050565b600560009054906101000a900460ff1681565b600033905090565b6105598383836001610768565b505050565b600073ffffffffffffffffffffffffffffffffffffffff168273ffffffffffffffffffffffffffffffffffffffff16036105d05760006040517fec442f050000000000000000000000000000000000000000000000000000000081526004016105c79190610f21565b60405180910390fd5b6105dc6000838361093f565b5050565b60006105ec84846104aa565b90507fffffffffffffffffffffffffffffffffffffffffffffffffffffffffffffffff811461066e578181101561065e578281836040517ffb8f41b200000000000000000000000000000000000000000000000000000000815260040161065593929190610f3c565b60405180910390fd5b61066d84848484036000610768565b5b50505050565b600073ffffffffffffffffffffffffffffffffffffffff168373ffffffffffffffffffffffffffffffffffffffff16036106e65760006040517f96c6fd1e0000000000000000000000000000000000000000000000000000000081526004016106dd9190610f21565b60405180910390fd5b600073ffffffffffffffffffffffffffffffffffffffff168273ffffffffffffffffffffffffffffffffffffffff16036107585760006040517fec442f0500000000000000000000000000000000000000000000000000000000815260040161074f9190610f21565b60405180910390fd5b61076383838361093f565b505050565b600073ffffffffffffffffffffffffffffffffffffffff168473ffffffffffffffffffffffffffffffffffffffff16036107da5760006040517fe602df050000000000000000000000000000000000000000000000000000000081526004016107d19190610f21565b60405180910390fd5b600073ffffffffffffffffffffffffffffffffffffffff168373ffffffffffffffffffffffffffffffffffffffff160361084c5760006040517f94280d620000000000000000000000000000000000000000000000000000000081526004016108439190610f21565b60405180910390fd5b81600160008673ffffffffffffffffffffffffffffffffffffffff1673ffffffffffffffffffffffffffffffffffffffff16815260200190815260200160002060008573ffffffffffffffffffffffffffffffffffffffff1673ffffffffffffffffffffffffffffffffffffffff168152602001908152602001600020819055508015610939578273ffffffffffffffffffffffffffffffffffffffff168473ffffffffffffffffffffffffffffffffffffffff167f8c5be1e5ebec7d5bd14f71427d1e84f3dd0314c0f7b2291e5b200ac8c7c3b925846040516109309190610d34565b60405180910390a35b50505050565b600073ffffffffffffffffffffffffffffffffffffffff168373ffffffffffffffffffffffffffffffffffffffff16036109915780600260008282546109859190610fa2565b92505081905550610a64565b60008060008573ffffffffffffffffffffffffffffffffffffffff1673ffffffffffffffffffffffffffffffffffffffff16815260200190815260200160002054905081811015610a1d578381836040517fe450d38c000000000000000000000000000000000000000000000000000000008152600401610a1493929190610f3c565b60405180910390fd5b8181036000808673ffffffffffffffffffffffffffffffffffffffff1673ffffffffffffffffffffffffffffffffffffffff16815260200190815260200160002081905550505b600073ffffffffffffffffffffffffffffffffffffffff168273ffffffffffffffffffffffffffffffffffffffff1603610aad5780600260008282540392505081905550610afa565b806000808473ffffffffffffffffffffffffffffffffffffffff1673ffffffffffffffffffffffffffffffffffffffff168152602001908152602001600020600082825401925050819055505b8173ffffffffffffffffffffffffffffffffffffffff168373ffffffffffffffffffffffffffffffffffffffff167fddf252ad1be2c89b69c2b068fc378daa952ba7f163c4a11628f55a4df523b3ef83604051610b579190610d34565b60405180910390a3505050565b600081519050919050565b600082825260208201905092915050565b60005b83811015610b9e578082015181840152602081019050610b83565b60008484015250505050565b6000601f19601f8301169050919050565b6000610bc682610b64565b610bd08185610b6f565b9350610be0818560208601610b80565b610be981610baa565b840191505092915050565b60006020820190508181036000830152610c0e8184610bbb565b905092915050565b600080fd5b600073ffffffffffffffffffffffffffffffffffffffff82169050919050565b6000610c4682610c1b565b9050919050565b610c5681610c3b565b8114610c6157600080fd5b50565b600081359050610c7381610c4d565b92915050565b6000819050919050565b610c8c81610c79565b8114610c9757600080fd5b50565b600081359050610ca981610c83565b92915050565b60008060408385031215610cc657610cc5610c16565b5b6000610cd485828601610c64565b9250506020610ce585828601610c9a565b9150509250929050565b60008115159050919050565b610d0481610cef565b82525050565b6000602082019050610d1f6000830184610cfb565b92915050565b610d2e81610c79565b82525050565b6000602082019050610d496000830184610d25565b92915050565b600080600060608486031215610d6857610d67610c16565b5b6000610d7686828701610c64565b9350506020610d8786828701610c64565b9250506040610d9886828701610c9a565b9150509250925092565b600060ff82169050919050565b610db881610da2565b82525050565b6000602082019050610dd36000830184610daf565b92915050565b600060208284031215610def57610dee610c16565b5b6000610dfd84828501610c64565b91505092915050565b60008060408385031215610e1d57610e1c610c16565b5b6000610e2b85828601610c64565b9250506020610e3c85828601610c64565b9150509250929050565b7f4e487b7100000000000000000000000000000000000000000000000000000000600052602260045260246000fd5b60006002820490506001821680610e8d57607f821691505b602082108103610ea057610e9f610e46565b5b50919050565b7f596f752063616e6e6f742067657420546f6b656e207468697320776179210000600082015250565b6000610edc601e83610b6f565b9150610ee782610ea6565b602082019050919050565b60006020820190508181036000830152610f0b81610ecf565b9050919050565b610f1b81610c3b565b82525050565b6000602082019050610f366000830184610f12565b92915050565b6000606082019050610f516000830186610f12565b610f5e6020830185610d25565b610f6b6040830184610d25565b949350505050565b7f4e487b7100000000000000000000000000000000000000000000000000000000600052601160045260246000fd5b6000610fad82610c79565b9150610fb883610c79565b9250828201905080821115610fd057610fcf610f73565b5b9291505056fea264697066735822122097c3fbdf4df8569d4cd09fd66172deae06675676a9e612ad4e8acf213bd1e73b64736f6c63430008140033",
   "linkReferences": {},
   "deployedLinkReferences": {}
}