{
   "_format": "hh-sol-artifact-1",
   "contractName": "FlagGiver",
   "sourceName": "contracts/FlagGiver.sol",
   "abi": [
      {
         "inputs": [
            {
               "internalType": "address",
               "name": "_cfnt",
               "type": "address"
            },
            {
               "internalType": "address",
               "name": "_thedoor",
               "type": "address"
            },
            {
               "internalType": "address",
               "name": "_dao",
               "type": "address"
            },
            {
               "internalType": "address",
               "name": "_ctoken",
               "type": "address"
            },
            {
               "internalType": "address",
               "name": "_nft",
               "type": "address"
            },
            {
               "internalType": "bytes32",
               "name": "_Flag_1",
               "type": "bytes32"
            },
            {
               "internalType": "bytes32",
               "name": "_Flag_2",
               "type": "bytes32"
            },
            {
               "internalType": "bytes32",
               "name": "_Flag_3",
               "type": "bytes32"
            }
         ],
         "stateMutability": "nonpayable",
         "type": "constructor"
      },
      {
         "inputs": [],
         "name": "CheckLevel1",
         "outputs": [
            {
               "internalType": "bytes32",
               "name": "",
               "type": "bytes32"
            }
         ],
         "stateMutability": "nonpayable",
         "type": "function"
      },
      {
         "inputs": [],
         "name": "CheckLevel2",
         "outputs": [
            {
               "internalType": "bytes32",
               "name": "",
               "type": "bytes32"
            }
         ],
         "stateMutability": "view",
         "type": "function"
      },
      {
         "inputs": [],
         "name": "CheckLevel3",
         "outputs": [
            {
               "internalType": "bytes32",
               "name": "",
               "type": "bytes32"
            }
         ],
         "stateMutability": "nonpayable",
         "type": "function"
      }
   ],
   "bytecode": "0x608060405234801561001057600080fd5b506040516108a03803806108a083398181016040528101906100329190610231565b866000806101000a81548173ffffffffffffffffffffffffffffffffffffffff021916908373ffffffffffffffffffffffffffffffffffffffff1602179055508260058190555085600160006101000a81548173ffffffffffffffffffffffffffffffffffffffff021916908373ffffffffffffffffffffffffffffffffffffffff1602179055508160078190555083600260006101000a81548173ffffffffffffffffffffffffffffffffffffffff021916908373ffffffffffffffffffffffffffffffffffffffff16021790555084600360006101000a81548173ffffffffffffffffffffffffffffffffffffffff021916908373ffffffffffffffffffffffffffffffffffffffff16021790555080600a8190555087600460006101000a81548173ffffffffffffffffffffffffffffffffffffffff021916908373ffffffffffffffffffffffffffffffffffffffff16021790555050505050505050506102e7565b600080fd5b600073ffffffffffffffffffffffffffffffffffffffff82169050919050565b60006101c88261019d565b9050919050565b6101d8816101bd565b81146101e357600080fd5b50565b6000815190506101f5816101cf565b92915050565b6000819050919050565b61020e816101fb565b811461021957600080fd5b50565b60008151905061022b81610205565b92915050565b600080600080600080600080610100898b03121561025257610251610198565b5b60006102608b828c016101e6565b98505060206102718b828c016101e6565b97505060406102828b828c016101e6565b96505060606102938b828c016101e6565b95505060806102a48b828c016101e6565b94505060a06102b58b828c0161021c565b93505060c06102c68b828c0161021c565b92505060e06102d78b828c0161021c565b9150509295985092959890939650565b6105aa806102f66000396000f3fe608060405234801561001057600080fd5b50600436106100415760003560e01c80631723f86f14610046578063c9b60c0314610064578063e353415814610082575b600080fd5b61004e6100a0565b60405161005b9190610377565b60405180910390f35b61006c6100f5565b6040516100799190610377565b60405180910390f35b61008a6102b4565b6040516100979190610377565b60405180910390f35b600080600160009054906101000a900473ffffffffffffffffffffffffffffffffffffffff1673ffffffffffffffffffffffffffffffffffffffff163111156100ec57600090506100f2565b60075490505b90565b600080600260009054906101000a900473ffffffffffffffffffffffffffffffffffffffff1673ffffffffffffffffffffffffffffffffffffffff16636352211e60016040518263ffffffff1660e01b815260040161015491906103e1565b6020604051808303816000875af1158015610173573d6000803e3d6000fd5b505050506040513d601f19601f82011682018060405250810190610197919061045f565b90506000600360009054906101000a900473ffffffffffffffffffffffffffffffffffffffff1673ffffffffffffffffffffffffffffffffffffffff166370a08231836040518263ffffffff1660e01b81526004016101f6919061049b565b6020604051808303816000875af1158015610215573d6000803e3d6000fd5b505050506040513d601f19601f8201168201806040525081019061023991906104e2565b9050600460009054906101000a900473ffffffffffffffffffffffffffffffffffffffff1673ffffffffffffffffffffffffffffffffffffffff168273ffffffffffffffffffffffffffffffffffffffff16141580156102995750600081115b156102aa57600a54925050506102b1565b6000925050505b90565b60008060009054906101000a900473ffffffffffffffffffffffffffffffffffffffff1673ffffffffffffffffffffffffffffffffffffffff1663cf3090126040518163ffffffff1660e01b81526004016020604051808303816000875af1158015610324573d6000803e3d6000fd5b505050506040513d601f19601f820116820180604052508101906103489190610547565b61035657600554905061035b565b600090505b90565b6000819050919050565b6103718161035e565b82525050565b600060208201905061038c6000830184610368565b92915050565b6000819050919050565b6000819050919050565b6000819050919050565b60006103cb6103c66103c184610392565b6103a6565b61039c565b9050919050565b6103db816103b0565b82525050565b60006020820190506103f660008301846103d2565b92915050565b600080fd5b600073ffffffffffffffffffffffffffffffffffffffff82169050919050565b600061042c82610401565b9050919050565b61043c81610421565b811461044757600080fd5b50565b60008151905061045981610433565b92915050565b600060208284031215610475576104746103fc565b5b60006104838482850161044a565b91505092915050565b61049581610421565b82525050565b60006020820190506104b0600083018461048c565b92915050565b6104bf8161039c565b81146104ca57600080fd5b50565b6000815190506104dc816104b6565b92915050565b6000602082840312156104f8576104f76103fc565b5b6000610506848285016104cd565b91505092915050565b60008115159050919050565b6105248161050f565b811461052f57600080fd5b50565b6000815190506105418161051b565b92915050565b60006020828403121561055d5761055c6103fc565b5b600061056b84828501610532565b9150509291505056fea2646970667358221220f8da5a367f1b4276a19838f21d726fcb0ee80b2d38fa8921020c360de22d817864736f6c63430008140033",
   "linkReferences": {},
   "deployedLinkReferences": {}
}