{
   "_format": "hh-sol-artifact-1",
   "contractName": "NFT",
   "sourceName": "contracts/CTFNFT.sol",
   "abi": [
      {
         "inputs": [
            {
               "internalType": "address",
               "name": "sender",
               "type": "address"
            },
            {
               "internalType": "uint256",
               "name": "tokenId",
               "type": "uint256"
            },
            {
               "internalType": "address",
               "name": "owner",
               "type": "address"
            }
         ],
         "name": "ERC721IncorrectOwner",
         "type": "error"
      },
      {
         "inputs": [
            {
               "internalType": "address",
               "name": "operator",
               "type": "address"
            },
            {
               "internalType": "uint256",
               "name": "tokenId",
               "type": "uint256"
            }
         ],
         "name": "ERC721InsufficientApproval",
         "type": "error"
      },
      {
         "inputs": [
            {
               "internalType": "address",
               "name": "approver",
               "type": "address"
            }
         ],
         "name": "ERC721InvalidApprover",
         "type": "error"
      },
      {
         "inputs": [
            {
               "internalType": "address",
               "name": "operator",
               "type": "address"
            }
         ],
         "name": "ERC721InvalidOperator",
         "type": "error"
      },
      {
         "inputs": [
            {
               "internalType": "address",
               "name": "owner",
               "type": "address"
            }
         ],
         "name": "ERC721InvalidOwner",
         "type": "error"
      },
      {
         "inputs": [
            {
               "internalType": "address",
               "name": "receiver",
               "type": "address"
            }
         ],
         "name": "ERC721InvalidReceiver",
         "type": "error"
      },
      {
         "inputs": [
            {
               "internalType": "address",
               "name": "sender",
               "type": "address"
            }
         ],
         "name": "ERC721InvalidSender",
         "type": "error"
      },
      {
         "inputs": [
            {
               "internalType": "uint256",
               "name": "tokenId",
               "type": "uint256"
            }
         ],
         "name": "ERC721NonexistentToken",
         "type": "error"
      },
      {
         "anonymous": false,
         "inputs": [
            {
               "indexed": true,
               "internalType": "address",
               "name": "owner",
               "type": "address"
            },
            {
               "indexed": true,
               "internalType": "address",
               "name": "approved",
               "type": "address"
            },
            {
               "indexed": true,
               "internalType": "uint256",
               "name": "tokenId",
               "type": "uint256"
            }
         ],
         "name": "Approval",
         "type": "event"
      },
      {
         "anonymous": false,
         "inputs": [
            {
               "indexed": true,
               "internalType": "address",
               "name": "owner",
               "type": "address"
            },
            {
               "indexed": true,
               "internalType": "address",
               "name": "operator",
               "type": "address"
            },
            {
               "indexed": false,
               "internalType": "bool",
               "name": "approved",
               "type": "bool"
            }
         ],
         "name": "ApprovalForAll",
         "type": "event"
      },
      {
         "anonymous": false,
         "inputs": [
            {
               "indexed": true,
               "internalType": "address",
               "name": "from",
               "type": "address"
            },
            {
               "indexed": true,
               "internalType": "address",
               "name": "to",
               "type": "address"
            },
            {
               "indexed": true,
               "internalType": "uint256",
               "name": "tokenId",
               "type": "uint256"
            }
         ],
         "name": "Transfer",
         "type": "event"
      },
      {
         "inputs": [
            {
               "internalType": "address",
               "name": "to",
               "type": "address"
            },
            {
               "internalType": "uint256",
               "name": "tokenId",
               "type": "uint256"
            }
         ],
         "name": "approve",
         "outputs": [],
         "stateMutability": "nonpayable",
         "type": "function"
      },
      {
         "inputs": [
            {
               "internalType": "address",
               "name": "owner",
               "type": "address"
            }
         ],
         "name": "balanceOf",
         "outputs": [
            {
               "internalType": "uint256",
               "name": "",
               "type": "uint256"
            }
         ],
         "stateMutability": "view",
         "type": "function"
      },
      {
         "inputs": [
            {
               "internalType": "uint256",
               "name": "tokenId",
               "type": "uint256"
            }
         ],
         "name": "getApproved",
         "outputs": [
            {
               "internalType": "address",
               "name": "",
               "type": "address"
            }
         ],
         "stateMutability": "view",
         "type": "function"
      },
      {
         "inputs": [],
         "name": "getNFT",
         "outputs": [],
         "stateMutability": "nonpayable",
         "type": "function"
      },
      {
         "inputs": [
            {
               "internalType": "address",
               "name": "owner",
               "type": "address"
            },
            {
               "internalType": "address",
               "name": "operator",
               "type": "address"
            }
         ],
         "name": "isApprovedForAll",
         "outputs": [
            {
               "internalType": "bool",
               "name": "",
               "type": "bool"
            }
         ],
         "stateMutability": "view",
         "type": "function"
      },
      {
         "inputs": [],
         "name": "lock",
         "outputs": [
            {
               "internalType": "bool",
               "name": "",
               "type": "bool"
            }
         ],
         "stateMutability": "view",
         "type": "function"
      },
      {
         "inputs": [],
         "name": "name",
         "outputs": [
            {
               "internalType": "string",
               "name": "",
               "type": "string"
            }
         ],
         "stateMutability": "view",
         "type": "function"
      },
      {
         "inputs": [
            {
               "internalType": "uint256",
               "name": "tokenId",
               "type": "uint256"
            }
         ],
         "name": "ownerOf",
         "outputs": [
            {
               "internalType": "address",
               "name": "",
               "type": "address"
            }
         ],
         "stateMutability": "view",
         "type": "function"
      },
      {
         "inputs": [
            {
               "internalType": "address",
               "name": "from",
               "type": "address"
            },
            {
               "internalType": "address",
               "name": "to",
               "type": "address"
            },
            {
               "internalType": "uint256",
               "name": "tokenId",
               "type": "uint256"
            }
         ],
         "name": "safeTransferFrom",
         "outputs": [],
         "stateMutability": "nonpayable",
         "type": "function"
      },
      {
         "inputs": [
            {
               "internalType": "address",
               "name": "from",
               "type": "address"
            },
            {
               "internalType": "address",
               "name": "to",
               "type": "address"
            },
            {
               "internalType": "uint256",
               "name": "tokenId",
               "type": "uint256"
            },
            {
               "internalType": "bytes",
               "name": "data",
               "type": "bytes"
            }
         ],
         "name": "safeTransferFrom",
         "outputs": [],
         "stateMutability": "nonpayable",
         "type": "function"
      },
      {
         "inputs": [
            {
               "internalType": "address",
               "name": "operator",
               "type": "address"
            },
            {
               "internalType": "bool",
               "name": "approved",
               "type": "bool"
            }
         ],
         "name": "setApprovalForAll",
         "outputs": [],
         "stateMutability": "nonpayable",
         "type": "function"
      },
      {
         "inputs": [
            {
               "internalType": "bytes4",
               "name": "interfaceId",
               "type": "bytes4"
            }
         ],
         "name": "supportsInterface",
         "outputs": [
            {
               "internalType": "bool",
               "name": "",
               "type": "bool"
            }
         ],
         "stateMutability": "view",
         "type": "function"
      },
      {
         "inputs": [],
         "name": "symbol",
         "outputs": [
            {
               "internalType": "string",
               "name": "",
               "type": "string"
            }
         ],
         "stateMutability": "view",
         "type": "function"
      },
      {
         "inputs": [
            {
               "internalType": "uint256",
               "name": "tokenId",
               "type": "uint256"
            }
         ],
         "name": "tokenURI",
         "outputs": [
            {
               "internalType": "string",
               "name": "",
               "type": "string"
            }
         ],
         "stateMutability": "view",
         "type": "function"
      },
      {
         "inputs": [
            {
               "internalType": "address",
               "name": "from",
               "type": "address"
            },
            {
               "internalType": "address",
               "name": "to",
               "type": "address"
            },
            {
               "internalType": "uint256",
               "name": "tokenId",
               "type": "uint256"
            }
         ],
         "name": "transferFrom",
         "outputs": [],
         "stateMutability": "nonpayable",
         "type": "function"
      }
   ],
   "bytecode": "0x60806040523480156200001157600080fd5b506040518060400160405280600d81526020017f436f6e636f726469612d4e4654000000000000000000000000000000000000008152506040518060400160405280600481526020017f434e46540000000000000000000000000000000000000000000000000000000081525081600090816200008f919062000324565b508060019081620000a1919062000324565b5050506200040b565b600081519050919050565b7f4e487b7100000000000000000000000000000000000000000000000000000000600052604160045260246000fd5b7f4e487b7100000000000000000000000000000000000000000000000000000000600052602260045260246000fd5b600060028204905060018216806200012c57607f821691505b602082108103620001425762000141620000e4565b5b50919050565b60008190508160005260206000209050919050565b60006020601f8301049050919050565b600082821b905092915050565b600060088302620001ac7fffffffffffffffffffffffffffffffffffffffffffffffffffffffffffffffff826200016d565b620001b886836200016d565b95508019841693508086168417925050509392505050565b6000819050919050565b6000819050919050565b600062000205620001ff620001f984620001d0565b620001da565b620001d0565b9050919050565b6000819050919050565b6200022183620001e4565b6200023962000230826200020c565b8484546200017a565b825550505050565b600090565b6200025062000241565b6200025d81848462000216565b505050565b5b8181101562000285576200027960008262000246565b60018101905062000263565b5050565b601f821115620002d4576200029e8162000148565b620002a9846200015d565b81016020851015620002b9578190505b620002d1620002c8856200015d565b83018262000262565b50505b505050565b600082821c905092915050565b6000620002f960001984600802620002d9565b1980831691505092915050565b6000620003148383620002e6565b9150826002028217905092915050565b6200032f82620000aa565b67ffffffffffffffff8111156200034b576200034a620000b5565b5b62000357825462000113565b6200036482828562000289565b600060209050601f8311600181146200039c576000841562000387578287015190505b62000393858262000306565b86555062000403565b601f198416620003ac8662000148565b60005b82811015620003d657848901518255600182019150602085019450602081019050620003af565b86831015620003f65784890151620003f2601f891682620002e6565b8355505b6001600288020188555050505b505050505050565b611ee0806200041b6000396000f3fe608060405234801561001057600080fd5b50600436106100f55760003560e01c806370a0823111610097578063b88d4fde11610066578063b88d4fde14610270578063c87b56dd1461028c578063e985e9c5146102bc578063f83d08ba146102ec576100f5565b806370a08231146101fc57806388a6360e1461022c57806395d89b4114610236578063a22cb46514610254576100f5565b8063095ea7b3116100d3578063095ea7b31461017857806323b872dd1461019457806342842e0e146101b05780636352211e146101cc576100f5565b806301ffc9a7146100fa57806306fdde031461012a578063081812fc14610148575b600080fd5b610114600480360381019061010f9190611698565b61030a565b60405161012191906116e0565b60405180910390f35b6101326103ec565b60405161013f919061178b565b60405180910390f35b610162600480360381019061015d91906117e3565b61047e565b60405161016f9190611851565b60405180910390f35b610192600480360381019061018d9190611898565b61049a565b005b6101ae60048036038101906101a991906118d8565b6104b0565b005b6101ca60048036038101906101c591906118d8565b6105b2565b005b6101e660048036038101906101e191906117e3565b6105d2565b6040516101f39190611851565b60405180910390f35b6102166004803603810190610211919061192b565b6105e4565b6040516102239190611967565b60405180910390f35b61023461069e565b005b61023e610716565b60405161024b919061178b565b60405180910390f35b61026e600480360381019061026991906119ae565b6107a8565b005b61028a60048036038101906102859190611b23565b6107be565b005b6102a660048036038101906102a191906117e3565b6107db565b6040516102b3919061178b565b60405180910390f35b6102d660048036038101906102d19190611ba6565b610844565b6040516102e391906116e0565b60405180910390f35b6102f46108d8565b60405161030191906116e0565b60405180910390f35b60007f80ac58cd000000000000000000000000000000000000000000000000000000007bffffffffffffffffffffffffffffffffffffffffffffffffffffffff1916827bffffffffffffffffffffffffffffffffffffffffffffffffffffffff191614806103d557507f5b5e139f000000000000000000000000000000000000000000000000000000007bffffffffffffffffffffffffffffffffffffffffffffffffffffffff1916827bffffffffffffffffffffffffffffffffffffffffffffffffffffffff1916145b806103e557506103e4826108eb565b5b9050919050565b6060600080546103fb90611c15565b80601f016020809104026020016040519081016040528092919081815260200182805461042790611c15565b80156104745780601f1061044957610100808354040283529160200191610474565b820191906000526020600020905b81548152906001019060200180831161045757829003601f168201915b5050505050905090565b600061048982610955565b50610493826109dd565b9050919050565b6104ac82826104a7610a1a565b610a22565b5050565b600073ffffffffffffffffffffffffffffffffffffffff168273ffffffffffffffffffffffffffffffffffffffff16036105225760006040517f64a0ae920000000000000000000000000000000000000000000000000000000081526004016105199190611851565b60405180910390fd5b60006105368383610531610a1a565b610a34565b90508373ffffffffffffffffffffffffffffffffffffffff168173ffffffffffffffffffffffffffffffffffffffff16146105ac578382826040517f64283d7b0000000000000000000000000000000000000000000000000000000081526004016105a393929190611c46565b60405180910390fd5b50505050565b6105cd838383604051806020016040528060008152506107be565b505050565b60006105dd82610955565b9050919050565b60008073ffffffffffffffffffffffffffffffffffffffff168273ffffffffffffffffffffffffffffffffffffffff16036106575760006040517f89c62b6400000000000000000000000000000000000000000000000000000000815260040161064e9190611851565b60405180910390fd5b600360008373ffffffffffffffffffffffffffffffffffffffff1673ffffffffffffffffffffffffffffffffffffffff168152602001908152602001600020549050919050565b600660009054906101000a900460ff16156106ee576040517f08c379a00000000000000000000000000000000000000000000000000000000081526004016106e590611cef565b60405180910390fd5b6106f9336001610c4e565b6001600660006101000a81548160ff021916908315150217905550565b60606001805461072590611c15565b80601f016020809104026020016040519081016040528092919081815260200182805461075190611c15565b801561079e5780601f106107735761010080835404028352916020019161079e565b820191906000526020600020905b81548152906001019060200180831161078157829003601f168201915b5050505050905090565b6107ba6107b3610a1a565b8383610d47565b5050565b6107c98484846104b0565b6107d584848484610eb6565b50505050565b60606107e682610955565b5060006107f161106d565b90506000815111610811576040518060200160405280600081525061083c565b8061081b84611084565b60405160200161082c929190611d4b565b6040516020818303038152906040525b915050919050565b6000600560008473ffffffffffffffffffffffffffffffffffffffff1673ffffffffffffffffffffffffffffffffffffffff16815260200190815260200160002060008373ffffffffffffffffffffffffffffffffffffffff1673ffffffffffffffffffffffffffffffffffffffff16815260200190815260200160002060009054906101000a900460ff16905092915050565b600660009054906101000a900460ff1681565b60007f01ffc9a7000000000000000000000000000000000000000000000000000000007bffffffffffffffffffffffffffffffffffffffffffffffffffffffff1916827bffffffffffffffffffffffffffffffffffffffffffffffffffffffff1916149050919050565b60008061096183611152565b9050600073ffffffffffffffffffffffffffffffffffffffff168173ffffffffffffffffffffffffffffffffffffffff16036109d457826040517f7e2732890000000000000000000000000000000000000000000000000000000081526004016109cb9190611967565b60405180910390fd5b80915050919050565b60006004600083815260200190815260200160002060009054906101000a900473ffffffffffffffffffffffffffffffffffffffff169050919050565b600033905090565b610a2f838383600161118f565b505050565b600080610a4084611152565b9050600073ffffffffffffffffffffffffffffffffffffffff168373ffffffffffffffffffffffffffffffffffffffff1614610a8257610a81818486611354565b5b600073ffffffffffffffffffffffffffffffffffffffff168173ffffffffffffffffffffffffffffffffffffffff1614610b1357610ac460008560008061118f565b6001600360008373ffffffffffffffffffffffffffffffffffffffff1673ffffffffffffffffffffffffffffffffffffffff168152602001908152602001600020600082825403925050819055505b600073ffffffffffffffffffffffffffffffffffffffff168573ffffffffffffffffffffffffffffffffffffffff1614610b96576001600360008773ffffffffffffffffffffffffffffffffffffffff1673ffffffffffffffffffffffffffffffffffffffff168152602001908152602001600020600082825401925050819055505b846002600086815260200190815260200160002060006101000a81548173ffffffffffffffffffffffffffffffffffffffff021916908373ffffffffffffffffffffffffffffffffffffffff160217905550838573ffffffffffffffffffffffffffffffffffffffff168273ffffffffffffffffffffffffffffffffffffffff167fddf252ad1be2c89b69c2b068fc378daa952ba7f163c4a11628f55a4df523b3ef60405160405180910390a4809150509392505050565b600073ffffffffffffffffffffffffffffffffffffffff168273ffffffffffffffffffffffffffffffffffffffff1603610cc05760006040517f64a0ae92000000000000000000000000000000000000000000000000000000008152600401610cb79190611851565b60405180910390fd5b6000610cce83836000610a34565b9050600073ffffffffffffffffffffffffffffffffffffffff168173ffffffffffffffffffffffffffffffffffffffff1614610d425760006040517f73c6ac6e000000000000000000000000000000000000000000000000000000008152600401610d399190611851565b60405180910390fd5b505050565b600073ffffffffffffffffffffffffffffffffffffffff168273ffffffffffffffffffffffffffffffffffffffff1603610db857816040517f5b08ba18000000000000000000000000000000000000000000000000000000008152600401610daf9190611851565b60405180910390fd5b80600560008573ffffffffffffffffffffffffffffffffffffffff1673ffffffffffffffffffffffffffffffffffffffff16815260200190815260200160002060008473ffffffffffffffffffffffffffffffffffffffff1673ffffffffffffffffffffffffffffffffffffffff16815260200190815260200160002060006101000a81548160ff0219169083151502179055508173ffffffffffffffffffffffffffffffffffffffff168373ffffffffffffffffffffffffffffffffffffffff167f17307eab39ab6107e8899845ad3d59bd9653f200f220920489ca2b5937696c3183604051610ea991906116e0565b60405180910390a3505050565b60008373ffffffffffffffffffffffffffffffffffffffff163b1115611067578273ffffffffffffffffffffffffffffffffffffffff1663150b7a02610efa610a1a565b8685856040518563ffffffff1660e01b8152600401610f1c9493929190611dc4565b6020604051808303816000875af1925050508015610f5857506040513d601f19601f82011682018060405250810190610f559190611e25565b60015b610fdc573d8060008114610f88576040519150601f19603f3d011682016040523d82523d6000602084013e610f8d565b606091505b506000815103610fd457836040517f64a0ae92000000000000000000000000000000000000000000000000000000008152600401610fcb9190611851565b60405180910390fd5b805181602001fd5b63150b7a0260e01b7bffffffffffffffffffffffffffffffffffffffffffffffffffffffff1916817bffffffffffffffffffffffffffffffffffffffffffffffffffffffff19161461106557836040517f64a0ae9200000000000000000000000000000000000000000000000000000000815260040161105c9190611851565b60405180910390fd5b505b50505050565b606060405180602001604052806000815250905090565b60606000600161109384611418565b01905060008167ffffffffffffffff8111156110b2576110b16119f8565b5b6040519080825280601f01601f1916602001820160405280156110e45781602001600182028036833780820191505090505b509050600082602001820190505b600115611147578080600190039150507f3031323334353637383961626364656600000000000000000000000000000000600a86061a8153600a858161113b5761113a611e52565b5b049450600085036110f2575b819350505050919050565b60006002600083815260200190815260200160002060009054906101000a900473ffffffffffffffffffffffffffffffffffffffff169050919050565b80806111c85750600073ffffffffffffffffffffffffffffffffffffffff168273ffffffffffffffffffffffffffffffffffffffff1614155b156112fc5760006111d884610955565b9050600073ffffffffffffffffffffffffffffffffffffffff168373ffffffffffffffffffffffffffffffffffffffff161415801561124357508273ffffffffffffffffffffffffffffffffffffffff168173ffffffffffffffffffffffffffffffffffffffff1614155b801561125657506112548184610844565b155b1561129857826040517fa9fbf51f00000000000000000000000000000000000000000000000000000000815260040161128f9190611851565b60405180910390fd5b81156112fa57838573ffffffffffffffffffffffffffffffffffffffff168273ffffffffffffffffffffffffffffffffffffffff167f8c5be1e5ebec7d5bd14f71427d1e84f3dd0314c0f7b2291e5b200ac8c7c3b92560405160405180910390a45b505b836004600085815260200190815260200160002060006101000a81548173ffffffffffffffffffffffffffffffffffffffff021916908373ffffffffffffffffffffffffffffffffffffffff16021790555050505050565b61135f83838361156b565b61141357600073ffffffffffffffffffffffffffffffffffffffff168373ffffffffffffffffffffffffffffffffffffffff16036113d457806040517f7e2732890000000000000000000000000000000000000000000000000000000081526004016113cb9190611967565b60405180910390fd5b81816040517f177e802f00000000000000000000000000000000000000000000000000000000815260040161140a929190611e81565b60405180910390fd5b505050565b600080600090507a184f03e93ff9f4daa797ed6e38ed64bf6a1f0100000000000000008310611476577a184f03e93ff9f4daa797ed6e38ed64bf6a1f010000000000000000838161146c5761146b611e52565b5b0492506040810190505b6d04ee2d6d415b85acef810000000083106114b3576d04ee2d6d415b85acef810000000083816114a9576114a8611e52565b5b0492506020810190505b662386f26fc1000083106114e257662386f26fc1000083816114d8576114d7611e52565b5b0492506010810190505b6305f5e100831061150b576305f5e100838161150157611500611e52565b5b0492506008810190505b612710831061153057612710838161152657611525611e52565b5b0492506004810190505b60648310611553576064838161154957611548611e52565b5b0492506002810190505b600a8310611562576001810190505b80915050919050565b60008073ffffffffffffffffffffffffffffffffffffffff168373ffffffffffffffffffffffffffffffffffffffff161415801561162357508273ffffffffffffffffffffffffffffffffffffffff168473ffffffffffffffffffffffffffffffffffffffff1614806115e457506115e38484610844565b5b8061162257508273ffffffffffffffffffffffffffffffffffffffff1661160a836109dd565b73ffffffffffffffffffffffffffffffffffffffff16145b5b90509392505050565b6000604051905090565b600080fd5b600080fd5b60007fffffffff0000000000000000000000000000000000000000000000000000000082169050919050565b61167581611640565b811461168057600080fd5b50565b6000813590506116928161166c565b92915050565b6000602082840312156116ae576116ad611636565b5b60006116bc84828501611683565b91505092915050565b60008115159050919050565b6116da816116c5565b82525050565b60006020820190506116f560008301846116d1565b92915050565b600081519050919050565b600082825260208201905092915050565b60005b8381101561173557808201518184015260208101905061171a565b60008484015250505050565b6000601f19601f8301169050919050565b600061175d826116fb565b6117678185611706565b9350611777818560208601611717565b61178081611741565b840191505092915050565b600060208201905081810360008301526117a58184611752565b905092915050565b6000819050919050565b6117c0816117ad565b81146117cb57600080fd5b50565b6000813590506117dd816117b7565b92915050565b6000602082840312156117f9576117f8611636565b5b6000611807848285016117ce565b91505092915050565b600073ffffffffffffffffffffffffffffffffffffffff82169050919050565b600061183b82611810565b9050919050565b61184b81611830565b82525050565b60006020820190506118666000830184611842565b92915050565b61187581611830565b811461188057600080fd5b50565b6000813590506118928161186c565b92915050565b600080604083850312156118af576118ae611636565b5b60006118bd85828601611883565b92505060206118ce858286016117ce565b9150509250929050565b6000806000606084860312156118f1576118f0611636565b5b60006118ff86828701611883565b935050602061191086828701611883565b9250506040611921868287016117ce565b9150509250925092565b60006020828403121561194157611940611636565b5b600061194f84828501611883565b91505092915050565b611961816117ad565b82525050565b600060208201905061197c6000830184611958565b92915050565b61198b816116c5565b811461199657600080fd5b50565b6000813590506119a881611982565b92915050565b600080604083850312156119c5576119c4611636565b5b60006119d385828601611883565b92505060206119e485828601611999565b9150509250929050565b600080fd5b600080fd5b7f4e487b7100000000000000000000000000000000000000000000000000000000600052604160045260246000fd5b611a3082611741565b810181811067ffffffffffffffff82111715611a4f57611a4e6119f8565b5b80604052505050565b6000611a6261162c565b9050611a6e8282611a27565b919050565b600067ffffffffffffffff821115611a8e57611a8d6119f8565b5b611a9782611741565b9050602081019050919050565b82818337600083830152505050565b6000611ac6611ac184611a73565b611a58565b905082815260208101848484011115611ae257611ae16119f3565b5b611aed848285611aa4565b509392505050565b600082601f830112611b0a57611b096119ee565b5b8135611b1a848260208601611ab3565b91505092915050565b60008060008060808587031215611b3d57611b3c611636565b5b6000611b4b87828801611883565b9450506020611b5c87828801611883565b9350506040611b6d878288016117ce565b925050606085013567ffffffffffffffff811115611b8e57611b8d61163b565b5b611b9a87828801611af5565b91505092959194509250565b60008060408385031215611bbd57611bbc611636565b5b6000611bcb85828601611883565b9250506020611bdc85828601611883565b9150509250929050565b7f4e487b7100000000000000000000000000000000000000000000000000000000600052602260045260246000fd5b60006002820490506001821680611c2d57607f821691505b602082108103611c4057611c3f611be6565b5b50919050565b6000606082019050611c5b6000830186611842565b611c686020830185611958565b611c756040830184611842565b949350505050565b7f536f72727920796f752063616e6e6f742074616b65206d6f7265207468656e2060008201527f31204e4654000000000000000000000000000000000000000000000000000000602082015250565b6000611cd9602583611706565b9150611ce482611c7d565b604082019050919050565b60006020820190508181036000830152611d0881611ccc565b9050919050565b600081905092915050565b6000611d25826116fb565b611d2f8185611d0f565b9350611d3f818560208601611717565b80840191505092915050565b6000611d578285611d1a565b9150611d638284611d1a565b91508190509392505050565b600081519050919050565b600082825260208201905092915050565b6000611d9682611d6f565b611da08185611d7a565b9350611db0818560208601611717565b611db981611741565b840191505092915050565b6000608082019050611dd96000830187611842565b611de66020830186611842565b611df36040830185611958565b8181036060830152611e058184611d8b565b905095945050505050565b600081519050611e1f8161166c565b92915050565b600060208284031215611e3b57611e3a611636565b5b6000611e4984828501611e10565b91505092915050565b7f4e487b7100000000000000000000000000000000000000000000000000000000600052601260045260246000fd5b6000604082019050611e966000830185611842565b611ea36020830184611958565b939250505056fea26469706673582212206263b970156943bf73c7908dfd183bb558f2a03b02ad4d80dc85878e9126bb7564736f6c63430008140033",
   "linkReferences": {},
   "deployedLinkReferences": {}
}