{
   "_format": "hh-sol-artifact-1",
   "contractName": "Thedoor",
   "sourceName": "contracts/Thedoor.sol",
   "abi": [
      {
         "inputs": [
            {
               "internalType": "bytes32",
               "name": "_password",
               "type": "bytes32"
            }
         ],
         "stateMutability": "nonpayable",
         "type": "constructor"
      },
      {
         "inputs": [],
         "name": "locked",
         "outputs": [
            {
               "internalType": "bool",
               "name": "",
               "type": "bool"
            }
         ],
         "stateMutability": "view",
         "type": "function"
      },
      {
         "inputs": [
            {
               "internalType": "bytes32",
               "name": "_password",
               "type": "bytes32"
            }
         ],
         "name": "unlock",
         "outputs": [],
         "stateMutability": "nonpayable",
         "type": "function"
      }
   ],
   "bytecode": "0x608060405234801561001057600080fd5b5060405161025138038061025183398181016040528101906100329190610094565b60016000806101000a81548160ff02191690831515021790555080600181905550506100c1565b600080fd5b6000819050919050565b6100718161005e565b811461007c57600080fd5b50565b60008151905061008e81610068565b92915050565b6000602082840312156100aa576100a9610059565b5b60006100b88482850161007f565b91505092915050565b610181806100d06000396000f3fe608060405234801561001057600080fd5b50600436106100365760003560e01c8063cf3090121461003b578063ec9b5b3a14610059575b600080fd5b610043610075565b60405161005091906100c8565b60405180910390f35b610073600480360381019061006e919061011e565b610086565b005b60008054906101000a900460ff1681565b80600154036100aa5760008060006101000a81548160ff0219169083151502179055505b50565b60008115159050919050565b6100c2816100ad565b82525050565b60006020820190506100dd60008301846100b9565b92915050565b600080fd5b6000819050919050565b6100fb816100e8565b811461010657600080fd5b50565b600081359050610118816100f2565b92915050565b600060208284031215610134576101336100e3565b5b600061014284828501610109565b9150509291505056fea2646970667358221220819edce0f93949316bd5a012e2485c8b3b0234a471d48d94f24e8ec99e375d0a64736f6c63430008140033",
   "linkReferences": {},
   "deployedLinkReferences": {}
}