{
   "_format": "hh-sol-artifact-1",
   "contractName": "Token",
   "sourceName": "contracts/Token.sol",
   "abi": [
      {
         "inputs": [],
         "stateMutability": "payable",
         "type": "constructor"
      },
      {
         "anonymous": false,
         "inputs": [
            {
               "indexed": true,
               "internalType": "address",
               "name": "_from",
               "type": "address"
            },
            {
               "indexed": true,
               "internalType": "address",
               "name": "_to",
               "type": "address"
            },
            {
               "indexed": false,
               "internalType": "uint256",
               "name": "_value",
               "type": "uint256"
            }
         ],
         "name": "Transfer",
         "type": "event"
      },
      {
         "inputs": [
            {
               "internalType": "address",
               "name": "dao",
               "type": "address"
            }
         ],
         "name": "Deposit",
         "outputs": [],
         "stateMutability": "payable",
         "type": "function"
      },
      {
         "inputs": [
            {
               "internalType": "address",
               "name": "account",
               "type": "address"
            }
         ],
         "name": "balanceOf",
         "outputs": [
            {
               "internalType": "uint256",
               "name": "",
               "type": "uint256"
            }
         ],
         "stateMutability": "view",
         "type": "function"
      },
      {
         "inputs": [],
         "name": "name",
         "outputs": [
            {
               "internalType": "string",
               "name": "",
               "type": "string"
            }
         ],
         "stateMutability": "view",
         "type": "function"
      },
      {
         "inputs": [],
         "name": "owner",
         "outputs": [
            {
               "internalType": "address",
               "name": "",
               "type": "address"
            }
         ],
         "stateMutability": "view",
         "type": "function"
      },
      {
         "inputs": [],
         "name": "symbol",
         "outputs": [
            {
               "internalType": "string",
               "name": "",
               "type": "string"
            }
         ],
         "stateMutability": "view",
         "type": "function"
      },
      {
         "inputs": [],
         "name": "totalSupply",
         "outputs": [
            {
               "internalType": "uint256",
               "name": "",
               "type": "uint256"
            }
         ],
         "stateMutability": "view",
         "type": "function"
      },
      {
         "inputs": [
            {
               "internalType": "address",
               "name": "to",
               "type": "address"
            },
            {
               "internalType": "uint256",
               "name": "amount",
               "type": "uint256"
            }
         ],
         "name": "transfer",
         "outputs": [],
         "stateMutability": "nonpayable",
         "type": "function"
      }
   ],
   "bytecode": "0x60806040526040518060400160405280600681526020017f4354464574680000000000000000000000000000000000000000000000000000815250600090816200004a9190620003a0565b506040518060400160405280600481526020017f434554480000000000000000000000000000000000000000000000000000000081525060019081620000919190620003a0565b50620f4240600255600254600560003373ffffffffffffffffffffffffffffffffffffffff1673ffffffffffffffffffffffffffffffffffffffff1681526020019081526020016000208190555033600460006101000a81548173ffffffffffffffffffffffffffffffffffffffff021916908373ffffffffffffffffffffffffffffffffffffffff16021790555062000487565b600081519050919050565b7f4e487b7100000000000000000000000000000000000000000000000000000000600052604160045260246000fd5b7f4e487b7100000000000000000000000000000000000000000000000000000000600052602260045260246000fd5b60006002820490506001821680620001a857607f821691505b602082108103620001be57620001bd62000160565b5b50919050565b60008190508160005260206000209050919050565b60006020601f8301049050919050565b600082821b905092915050565b600060088302620002287fffffffffffffffffffffffffffffffffffffffffffffffffffffffffffffffff82620001e9565b620002348683620001e9565b95508019841693508086168417925050509392505050565b6000819050919050565b6000819050919050565b6000620002816200027b62000275846200024c565b62000256565b6200024c565b9050919050565b6000819050919050565b6200029d8362000260565b620002b5620002ac8262000288565b848454620001f6565b825550505050565b600090565b620002cc620002bd565b620002d981848462000292565b505050565b5b818110156200030157620002f5600082620002c2565b600181019050620002df565b5050565b601f82111562000350576200031a81620001c4565b6200032584620001d9565b8101602085101562000335578190505b6200034d6200034485620001d9565b830182620002de565b50505b505050565b600082821c905092915050565b6000620003756000198460080262000355565b1980831691505092915050565b600062000390838362000362565b9150826002028217905092915050565b620003ab8262000126565b67ffffffffffffffff811115620003c757620003c662000131565b5b620003d382546200018f565b620003e082828562000305565b600060209050601f83116001811462000418576000841562000403578287015190505b6200040f858262000382565b8655506200047f565b601f1984166200042886620001c4565b60005b8281101562000452578489015182556001820191506020850194506020810190506200042b565b868310156200047257848901516200046e601f89168262000362565b8355505b6001600288020188555050505b505050505050565b610af780620004976000396000f3fe6080604052600436106100705760003560e01c80638ce0bd461161004e5780638ce0bd46146101085780638da5cb5b1461012457806395d89b411461014f578063a9059cbb1461017a57610070565b806306fdde031461007557806318160ddd146100a057806370a08231146100cb575b600080fd5b34801561008157600080fd5b5061008a6101a3565b6040516100979190610743565b60405180910390f35b3480156100ac57600080fd5b506100b5610231565b6040516100c2919061077e565b60405180910390f35b3480156100d757600080fd5b506100f260048036038101906100ed91906107fc565b610237565b6040516100ff919061077e565b60405180910390f35b610122600480360381019061011d91906107fc565b610280565b005b34801561013057600080fd5b50610139610352565b6040516101469190610838565b60405180910390f35b34801561015b57600080fd5b50610164610378565b6040516101719190610743565b60405180910390f35b34801561018657600080fd5b506101a1600480360381019061019c919061087f565b610406565b005b600080546101b0906108ee565b80601f01602080910402602001604051908101604052809291908181526020018280546101dc906108ee565b80156102295780601f106101fe57610100808354040283529160200191610229565b820191906000526020600020905b81548152906001019060200180831161020c57829003601f168201915b505050505081565b60025481565b6000600560008373ffffffffffffffffffffffffffffffffffffffff1673ffffffffffffffffffffffffffffffffffffffff168152602001908152602001600020549050919050565b80600360006101000a81548173ffffffffffffffffffffffffffffffffffffffff021916908373ffffffffffffffffffffffffffffffffffffffff160217905550600360009054906101000a900473ffffffffffffffffffffffffffffffffffffffff1673ffffffffffffffffffffffffffffffffffffffff1663f340fa0134306040518363ffffffff1660e01b815260040161031d9190610838565b6000604051808303818588803b15801561033657600080fd5b505af115801561034a573d6000803e3d6000fd5b505050505050565b600460009054906101000a900473ffffffffffffffffffffffffffffffffffffffff1681565b60018054610385906108ee565b80601f01602080910402602001604051908101604052809291908181526020018280546103b1906108ee565b80156103fe5780601f106103d3576101008083540402835291602001916103fe565b820191906000526020600020905b8154815290600101906020018083116103e157829003601f168201915b505050505081565b80600560003373ffffffffffffffffffffffffffffffffffffffff1673ffffffffffffffffffffffffffffffffffffffff168152602001908152602001600020541015610488576040517f08c379a000000000000000000000000000000000000000000000000000000000815260040161047f9061096b565b60405180910390fd5b6104ac604051806060016040528060248152602001610a9e602491393384846105c1565b80600560003373ffffffffffffffffffffffffffffffffffffffff1673ffffffffffffffffffffffffffffffffffffffff16815260200190815260200160002060008282546104fb91906109ba565b9250508190555080600560008473ffffffffffffffffffffffffffffffffffffffff1673ffffffffffffffffffffffffffffffffffffffff168152602001908152602001600020600082825461055191906109ee565b925050819055508173ffffffffffffffffffffffffffffffffffffffff163373ffffffffffffffffffffffffffffffffffffffff167fddf252ad1be2c89b69c2b068fc378daa952ba7f163c4a11628f55a4df523b3ef836040516105b5919061077e565b60405180910390a35050565b61065d848484846040516024016105db9493929190610a22565b6040516020818303038152906040527f8ef3f399000000000000000000000000000000000000000000000000000000007bffffffffffffffffffffffffffffffffffffffffffffffffffffffff19166020820180517bffffffffffffffffffffffffffffffffffffffffffffffffffffffff8381831617835250505050610663565b50505050565b61067a8161067261067d61069e565b63ffffffff16565b50565b60006a636f6e736f6c652e6c6f679050600080835160208501845afa505050565b6106a9819050919050565b6106b1610a6e565b565b600081519050919050565b600082825260208201905092915050565b60005b838110156106ed5780820151818401526020810190506106d2565b60008484015250505050565b6000601f19601f8301169050919050565b6000610715826106b3565b61071f81856106be565b935061072f8185602086016106cf565b610738816106f9565b840191505092915050565b6000602082019050818103600083015261075d818461070a565b905092915050565b6000819050919050565b61077881610765565b82525050565b6000602082019050610793600083018461076f565b92915050565b600080fd5b600073ffffffffffffffffffffffffffffffffffffffff82169050919050565b60006107c98261079e565b9050919050565b6107d9816107be565b81146107e457600080fd5b50565b6000813590506107f6816107d0565b92915050565b60006020828403121561081257610811610799565b5b6000610820848285016107e7565b91505092915050565b610832816107be565b82525050565b600060208201905061084d6000830184610829565b92915050565b61085c81610765565b811461086757600080fd5b50565b60008135905061087981610853565b92915050565b6000806040838503121561089657610895610799565b5b60006108a4858286016107e7565b92505060206108b58582860161086a565b9150509250929050565b7f4e487b7100000000000000000000000000000000000000000000000000000000600052602260045260246000fd5b6000600282049050600182168061090657607f821691505b602082108103610919576109186108bf565b5b50919050565b7f4e6f7420656e6f75676820746f6b656e73000000000000000000000000000000600082015250565b60006109556011836106be565b91506109608261091f565b602082019050919050565b6000602082019050818103600083015261098481610948565b9050919050565b7f4e487b7100000000000000000000000000000000000000000000000000000000600052601160045260246000fd5b60006109c582610765565b91506109d083610765565b92508282039050818111156109e8576109e761098b565b5b92915050565b60006109f982610765565b9150610a0483610765565b9250828201905080821115610a1c57610a1b61098b565b5b92915050565b60006080820190508181036000830152610a3c818761070a565b9050610a4b6020830186610829565b610a586040830185610829565b610a65606083018461076f565b95945050505050565b7f4e487b7100000000000000000000000000000000000000000000000000000000600052605160045260246000fdfe5472616e7366657272696e672066726f6d20257320746f20257320257320746f6b656e73a264697066735822122023a6247a9f2f79c4d58c5832c9eb2d5317bbe415394e1935a2fb45f8b44a7ac864736f6c63430008140033",
   "linkReferences": {},
   "deployedLinkReferences": {}
}